:020000020000FC
:1000000006C0FECFFDCF8FC1FBCF7EC1AEC10FEDCD
:100010000DBFFF24E0E6F0E000E8F1920A95E9F771
:100020000CE302BB0FE701BB08E708BB0DE807BB09
:1000300004E003BF02E009BF429A99277894C1E621
:10004000D0E00FEF088309830A830B830DE76DD09F
:1000500030D129F0EEE5F2E0E1D00AEF66D009E117
:10006000E02E9F7797FD0FC0EE20E1F7DD20D1F75E
:100070000DE7D02E5ED010F4C3985BD07CD090D02A
:10008000A8D0C39AECCF04E050D0B69B0FC0B59B6C
:1000900001C03AC0C3984DD0C39A40E050E068EE2A
:1000A00073E0A0E0B0E0E9E6F0E00AC042D063D03F
:1000B00040E050E060E177E2A0E0B0E0E7E6F0E0A9
:1000C000002411242224332480E3440F551F661F8B
:1000D000771FAA1FBB1F001C111C221C331C0016FB
:1000E00011062206330628F0001A110A220A330AE2
:1000F00043958A9551F7672B6A2B6B2B81F44083CC
:100100005183A5D0E8D0ABCF14D0232B41F43730A6
:1001100030F400936B0010936C0099D0A0CFEAE507
:10012000F2E07CD00AEF01D09ACFE02EEE20F1F77A
:100130000895FDBCFCBC222404E1C39B08E9302ED9
:1001400008E808BF0AE809BF987F01E40EBDB89827
:1001500092FD0AC091FFFCCF00E40EBD042D152DC9
:10016000262D372D8894089500E40EBD04E0DDDFD0
:100170003FEF08940895C39B12C040916B005091CB
:100180006C00041B150B2F093F0948F49160009582
:100190001095209530950F1D1F1D2F1D3F1D089593
:1001A000C7E6D0E0C39B229668817981441B550B3A
:1001B00081E210F4460F571F5795479537952795BD
:1001C000179507958A95A9F7022F132F242F352FFE
:1001D0000895ADE6B0E066276395442750E2000F2E
:1001E000111F221F331F441F4A3010F04A5003953D
:1001F0005A95A9F74D930F151F052F053F0561F778
:10020000623010F4FD926395C39B6D5FEEE5F2E002
:1002100090FF709634966A956230E0F71127C1E638
:10022000D0E0C8953196002DE894023010F400FB20
:100230000E91FF93EF93E2EAF2E0E00FF11FC89511
:10024000EF91FF9100F80992C53659F70895C1E67C
:10025000D0E0F992C536E9F708950E050F0F0E04A8
:100260000F0F0A01000D0A00000D0E030F0F0E0301
:100270000F0F0F01000D0001000D0000000D010027
:10028000000C0001000C0000000C0100000B00013C
:10029000000B0000000B0E020F0F0E020F0F0E02DC
:1002A0000F0FFC60DAF266B6BEE0FEF6024EC4CE78
:1002B0009E00C7E6D0E041E055E521D00993500FFC
:1002C000CB36D9F71CD0051729F00FEF0A930A9304
:1002D0000A930A930895C7E6D0E041E055E50991F5
:1002E000500F03D0CB36D9F7052F4EBB43950DBB2E
:1002F000F894E29AE19A7894E199FECF08954EBB82
:100300004395E09A0DB308950F930FB70F9323947D
:10031000231428F0BA9AB89A946002E009BF0F91AA
:100320000FBF0F9118950F930FB70F93BA9B0AC089
:1003300044B455B4622CBA9804E10A95F1F708E088
:1003400008BF0FC0742C44B44718752C55B4570817
:10035000762C622C67087724BA9AB89A02E009BF13
:1003600092600F910FBF0F9118950F9309ED02BF87
:1003700078940FB71F930F93FF93EF93E0E6F0E0AD
:1003800010811395143010F01ED0112711930CE337
:1003900002BBE10F00E406951150E8F700950C73DD
:1003A0001081E8E010FF919A10FD9198909A909832
:1003B0001695EA95B9F702BBEF91FF910F911F9146
:1003C0000FBF0F91189506B3009500711681068333
:1003D000011731F4158105831027102309F0906867
:0E03E000EE2009F0EA94DD2009F0DA94089589
:00000001FF
